{
  "contractName": "Election",
  "abi": [
    {
      "constant": true,
      "inputs": [],
      "name": "candidateCount",
      "outputs": [
        {
          "internalType": "uint256",
          "name": "",
          "type": "uint256"
        }
      ],
      "payable": false,
      "stateMutability": "view",
      "type": "function"
    },
    {
      "constant": true,
      "inputs": [
        {
          "internalType": "uint256",
          "name": "",
          "type": "uint256"
        }
      ],
      "name": "candidates",
      "outputs": [
        {
          "internalType": "uint256",
          "name": "_id",
          "type": "uint256"
        },
        {
          "internalType": "string",
          "name": "_name",
          "type": "string"
        },
        {
          "internalType": "uint256",
          "name": "_voteCount",
          "type": "uint256"
        }
      ],
      "payable": false,
      "stateMutability": "view",
      "type": "function"
    },
    {
      "constant": false,
      "inputs": [],
      "name": "registerCandidate",
      "outputs": [],
      "payable": false,
      "stateMutability": "nonpayable",
      "type": "function"
    }
  ],
  "bytecode": "0x608060405234801561001057600080fd5b506103fc806100206000396000f3fe608060405234801561001057600080fd5b50600436106100415760003560e01c80633477ee2e14610046578063a9a981a3146100fb578063f7e0079e14610119575b600080fd5b6100726004803603602081101561005c57600080fd5b8101908080359060200190929190505050610123565b6040518084815260200180602001838152602001828103825284818151815260200191508051906020019080838360005b838110156100be5780820151818401526020810190506100a3565b50505050905090810190601f1680156100eb5780820380516001836020036101000a031916815260200191505b5094505050505060405180910390f35b6101036101e5565b6040518082815260200191505060405180910390f35b6101216101eb565b005b6000602052806000526040600020600091509050806000015490806001018054600181600116156101000203166002900480601f0160208091040260200160405190810160405280929190818152602001828054600181600116156101000203166002900480156101d55780601f106101aa576101008083540402835291602001916101d5565b820191906000526020600020905b8154815290600101906020018083116101b857829003601f168201915b5050505050908060020154905083565b60015481565b6102296040518060400160405280600981526020017f5065746572204f626900000000000000000000000000000000000000000000008152506102a7565b6102676040518060400160405280600681526020017f54696e69627500000000000000000000000000000000000000000000000000008152506102a7565b6102a56040518060400160405280600581526020017f4174696b750000000000000000000000000000000000000000000000000000008152506102a7565b565b60405180606001604052806001548152602001828152602001600081525060008060015481526020019081526020016000206000820151816000015560208201518160010190805190602001906102ff929190610322565b506040820151816002015590505060016000815480929190600101919050555050565b828054600181600116156101000203166002900490600052602060002090601f016020900481019282601f1061036357805160ff1916838001178555610391565b82800160010185558215610391579182015b82811115610390578251825591602001919060010190610375565b5b50905061039e91906103a2565b5090565b6103c491905b808211156103c05760008160009055506001016103a8565b5090565b9056fea265627a7a7231582038dae9dabfd1e704f50a92d442e99dd1c1a64883d4a88281aa36ac2be876fe0264736f6c63430005100032",
  "source": "// SPDX-License-Identifier: MIT\r\npragma solidity >= 0.4.22;\r\n\r\ncontract Election {\r\n\r\n    struct Candidate{\r\n        uint _id;\r\n        string _name;\r\n        uint _voteCount;\r\n    }\r\n\r\n    // constructor() public{\r\n    //     registerCandidate();\r\n    // }\r\n\r\n    mapping(uint => Candidate) public candidates;\r\n\r\n    uint public candidateCount;\r\n\r\n    function addCandidate(string memory _name) private {\r\n        candidates[candidateCount] = Candidate(candidateCount, _name, 0);\r\n        candidateCount ++;\r\n    }\r\n\r\n    function registerCandidate() public {\r\n        addCandidate(\"Peter Obi\");\r\n        addCandidate(\"Tinibu\");\r\n        addCandidate(\"Atiku\");\r\n    }\r\n\r\n\r\n}",
  "sourcePath": "C:\\Users\\dell\\Documents\\solidity\\Election\\contracts\\Election.sol",
  "compiler": {
    "name": "solc",
    "version": "0.5.16+commit.9c3226ce.Emscripten.clang"
  },
  "schemaVersion": "3.4.9",
  "updatedAt": "2022-09-14T16:29:35.421Z",
  "networkType": "ethereum",
  "devdoc": {
    "methods": {}
  },
  "userdoc": {
    "methods": {}
  }
}